:020000040000fa
:080000000002040000000000f2
:020000040000fa
:04000800b60300003b
:020000040000fa
:04000c00b603000037
:020000040000fa
:04001000b603000033
:020000040000fa
:04001400b60300002f
:020000040000fa
:04001800b60300002b
:020000040000fa
:04001c00b603000027
:020000040000fa
:04002000b603000023
:020000040000fa
:04002400b60300001f
:020000040000fa
:04002800b60300001b
:020000040000fa
:04002c00b603000017
:020000040000fa
:04003000b603000013
:020000040000fa
:04003400b60300000f
:020000040000fa
:04003800b60300000b
:020000040000fa
:04003c00b603000007
:020000040000fa
:04004000b603000003
:020000040000fa
:04004400b6030000ff
:020000040000fa
:04004800b6030000fb
:020000040000fa
:04004c00b6030000f7
:020000040000fa
:04005000b6030000f3
:020000040000fa
:04005400b6030000ef
:020000040000fa
:04005800b6030000eb
:020000040000fa
:04005c00b6030000e7
:020000040000fa
:04006000b6030000e3
:020000040000fa
:04006400b6030000df
:020000040000fa
:04006800b6030000db
:020000040000fa
:04006c00b6030000d7
:020000040000fa
:04007000b6030000d3
:020000040000fa
:04007400b6030000cf
:020000040000fa
:04007800b6030000cb
:020000040000fa
:04007c00b6030000c7
:020000040000fa
:04008000b6030000c3
:020000040000fa
:04008400b6030000bf
:020000040000fa
:04008800b6030000bb
:020000040000fa
:04008c00b6030000b7
:020000040000fa
:04009000b6030000b3
:020000040000fa
:04009400b6030000af
:020000040000fa
:04009800b6030000ab
:020000040000fa
:04009c00b6030000a7
:020000040000fa
:0400a000b6030000a3
:020000040000fa
:0400a400b60300009f
:020000040000fa
:0400a800b60300009b
:020000040000fa
:0400ac00b603000097
:020000040000fa
:0400b000b603000093
:020000040000fa
:0400b400b60300008f
:020000040000fa
:0400b800b60300008b
:020000040000fa
:0400bc00b603000087
:020000040000fa
:0400c000b603000083
:020000040000fa
:0400c400b60300007f
:020000040000fa
:0400c800b60300007b
:020000040000fa
:0400cc00b603000077
:020000040000fa
:0400d000b603000073
:020000040000fa
:0400d400b60300006f
:020000040000fa
:0400d800b60300006b
:020000040000fa
:0400dc00b603000067
:020000040000fa
:0400e000b603000063
:020000040000fa
:0400e400b60300005f
:020000040000fa
:0400e800b60300005b
:020000040000fa
:0400ec00b603000057
:020000040000fa
:0400f000b603000053
:020000040000fa
:0400f400b60300004f
:020000040000fa
:0400f800b60300004b
:020000040000fa
:0400fc00b603000047
:020000040000fa
:04010000b603000042
:020000040000fa
:04010400b60300003e
:020000040000fa
:04010800b60300003a
:020000040000fa
:04010c00b603000036
:020000040000fa
:04011000b603000032
:020000040000fa
:04011400b60300002e
:020000040000fa
:04011800b60300002a
:020000040000fa
:04011c00b603000026
:020000040000fa
:04012000b603000022
:020000040000fa
:04012400b60300001e
:020000040000fa
:04012800b60300001a
:020000040000fa
:04012c00b603000016
:020000040000fa
:04013000b603000012
:020000040000fa
:04013400b60300000e
:020000040000fa
:04013800b60300000a
:020000040000fa
:04013c00b603000006
:020000040000fa
:04014000b603000002
:020000040000fa
:04014400b6030000fe
:020000040000fa
:04014800b6030000fa
:020000040000fa
:04014c00b6030000f6
:020000040000fa
:04015000b6030000f2
:020000040000fa
:04015400b6030000ee
:020000040000fa
:04015800b6030000ea
:020000040000fa
:04015c00b6030000e6
:020000040000fa
:04016000b6030000e2
:020000040000fa
:04016400b6030000de
:020000040000fa
:04016800b6030000da
:020000040000fa
:04016c00b6030000d6
:020000040000fa
:04017000b6030000d2
:020000040000fa
:04017400b6030000ce
:020000040000fa
:04017800b6030000ca
:020000040000fa
:04017c00b6030000c6
:020000040000fa
:04018000b6030000c2
:020000040000fa
:04018400b6030000be
:020000040000fa
:04018800b6030000ba
:020000040000fa
:04018c00b6030000b6
:020000040000fa
:04019000b6030000b2
:020000040000fa
:04019400b6030000ae
:020000040000fa
:04019800b6030000aa
:020000040000fa
:04019c00b6030000a6
:020000040000fa
:0401a000b6030000a2
:020000040000fa
:0401a400b60300009e
:020000040000fa
:0401a800b60300009a
:020000040000fa
:0401ac00fa02000053
:020000040000fa
:0401b000b603000092
:020000040000fa
:0401b400b60300008e
:020000040000fa
:0401b800b60300008a
:020000040000fa
:0401bc00b603000086
:020000040000fa
:0401c000b603000082
:020000040000fa
:0401c400b60300007e
:020000040000fa
:0401c800b60300007a
:020000040000fa
:0401cc00b603000076
:020000040000fa
:0401d000b603000072
:020000040000fa
:0401d4008c03000098
:020000040000fa
:0401d800b60300006a
:020000040000fa
:0401dc00b603000066
:020000040000fa
:0401e000b603000062
:020000040000fa
:0401e400b60300005e
:020000040000fa
:0401e800b60300005a
:020000040000fa
:0401ec00b603000056
:020000040000fa
:0401f000b603000052
:020000040000fa
:0401f400b60300004e
:020000040000fa
:0401f800b60300004a
:020000040000fa
:0401fc00b603000046
:020000040000fa
:04020000b603000041
:020000040000fa
:04020400b60300003d
:020000040000fa
:04020800b603000039
:020000040000fa
:04020c00b603000035
:020000040000fa
:04021000b603000031
:020000040000fa
:04021400b60300002d
:020000040000fa
:04021800b603000029
:020000040000fa
:04021c00b603000025
:020000040000fa
:04022000b603000021
:020000040000fa
:04022400b60300001d
:020000040000fa
:04022800b603000019
:020000040000fa
:04022c00b603000015
:020000040000fa
:04023000b603000011
:020000040000fa
:04023400b60300000d
:020000040000fa
:04023800b603000009
:020000040000fa
:04023c00b603000005
:020000040000fa
:04024000b603000001
:020000040000fa
:04024400b6030000fd
:020000040000fa
:04024800b6030000f9
:020000040000fa
:04024c00b6030000f5
:020000040000fa
:04025000b6030000f1
:020000040000fa
:04025400b6030000ed
:020000040000fa
:04025800b6030000e9
:020000040000fa
:04025c00b6030000e5
:020000040000fa
:04026000b6030000e1
:020000040000fa
:04026400b6030000dd
:020000040000fa
:04026800b6030000d9
:020000040000fa
:04026c00b6030000d5
:020000040000fa
:04027000b6030000d1
:020000040000fa
:04027400b6030000cd
:020000040000fa
:04027800b6030000c9
:020000040000fa
:04027c00b6030000c5
:020000040000fa
:04028000b6030000c1
:020000040000fa
:04028400b6030000bd
:020000040000fa
:04028800b6030000b9
:020000040000fa
:04028c00b6030000b5
:020000040000fa
:04029000b6030000b1
:020000040000fa
:04029400b6030000ad
:020000040000fa
:04029800b6030000a9
:020000040000fa
:04029c00b6030000a5
:020000040000fa
:0402a000b6030000a1
:020000040000fa
:0402a400b60300009d
:020000040000fa
:0402a800b603000099
:020000040000fa
:0402ac00b603000095
:020000040000fa
:0402b000b603000091
:020000040000fa
:0402b400b60300008d
:020000040000fa
:0402b800b603000089
:020000040000fa
:0402bc00b603000085
:020000040000fa
:0402c000b603000081
:020000040000fa
:0402c400b60300007d
:020000040000fa
:0402c800b603000079
:020000040000fa
:0402cc00b603000075
:020000040000fa
:0402d000b603000071
:020000040000fa
:0402d400b60300006d
:020000040000fa
:0402d800b603000069
:020000040000fa
:0402dc00b603000065
:020000040000fa
:0402e000b603000061
:020000040000fa
:0402e400b60300005d
:020000040000fa
:0402e800b603000059
:020000040000fa
:0402ec00b603000055
:020000040000fa
:0402f000b603000051
:020000040000fa
:0402f400b60300004d
:020000040000fa
:0402f800b603000049
:020000040000fa
:0402fc00b603000045
:020000040000fa
:04030000b603000040
:020000040000fa
:04030400b60300003c
:020000040000fa
:04030800b603000038
:020000040000fa
:04030c00b603000034
:020000040000fa
:04031000b603000030
:020000040000fa
:04031400b60300002c
:020000040000fa
:04031800b603000028
:020000040000fa
:04031c00b603000024
:020000040000fa
:04032000b603000020
:020000040000fa
:04032400b60300001c
:020000040000fa
:04032800b603000018
:020000040000fa
:04032c00b603000014
:020000040000fa
:04033000b603000010
:020000040000fa
:04033400b60300000c
:020000040000fa
:100400004f0721006efe26000e018800000000004c
:10041000000020000000e000020032000001200087
:100420002002880014000700d20007000000e0004e
:1004300003003a0040f820000100200002003700cd
:100440000000200001002000810f70000100320038
:100450000f000700000020000000e0000200320052
:1004600000000200000000004c0e0200000000002e
:100470000040da000000fe00200020000000e00044
:1004800002003200100020009001880000000600e9
:10049000a1028800800478000000eb001f003700f4
:1004a000e284440054a0b4009905ba00e2844400f8
:1004b00054a0b4009906ba00e284440054a0b400e9
:1004c0000006eb00476fde00fd07b200ae018800ba
:1004d000636ce10003003a000ad801000000eb0061
:1004e0000e003700606ce10008003a00004deb00a0
:1004f0000a05e800020039003420ec000af0a000f0
:100500008b05e900f9ff3e00040037006168e10057
:10051000010032000086eb000b00070019c7ba008b
:100520001905ba000e04e00003003a000a00e000da
:10053000dbff3a0000000600fe07b200ae028800b2
:100540008a047800f5ff37000cd0a300e20f4d00bd
:100550001c00390089027800354dba000a05e80010
:10056000020039003420ec000af0a0008b05e900fd
:100570000f003200254dba000a05e80002003900dc
:100580003420ec000af0a0008b05e90008003200de
:100590000c00e0000600320015cdba000a05e800a4
:1005a000020039003420ec000af0a0008b05e900bd
:1005b0008984e80054a0b4000b00e000e2ff3a0098
:1005c000000006009902ba00055d78008b05e9007d
:1005d000f7ff3200c82ade00055d78008b05e900d0
:1005e000f3ff32000c00e000f1ff320019ddba0029
:1005f000eeff37003200f8003400f8001000200051
:10060000a001880010002000900188000600fa0078
:100610000000eb00000f78006000b80010079800a1
:1006200021079800c0608000000f78001e0078004d
:100630004300dd00000f78001e0078008000eb0012
:10064000b2ac20000289b900020178006002b90052
:100650008401780003014100b3ac20000300b8001e
:1006600001014100820078001007980021079800de
:100670001e009000ae0090004109dd004f00de003a
:1006800000007100cf08de001007980021079800d5
:100690001e009000ae009000000078008039b0008d
:1006a0006101b800108180002181800002004000bb
:1006b000838048001081880021818800308180007b
:1006c0000000e8003081880031818000f00f2000b8
:1006d000008060000000e0000a003a001081800005
:1006e000218180004809dd004800de000000710023
:1006f000c808de0000007800608388002230ef0028
:100700002430ef000c28a9000080fa003400f90022
:100710003200f900004006003600f8003200f80010
:100720003400f80010002000a00188001000200014
:10073000900188000000fa00a082800000b0a000b4
:10074000a08288006061800050838800a0022100a0
:10075000a20407000d68a9000080fa003400f90027
:100760003200f9003600f900004006000040da00cf
:080770000000fe00000005007e
:020000040000fa
:100778000000fa003b020700a70107001405070064
:100788002e030700530307000000eb0010838800c6
:100798000000eb00c08288000000eb00e0828800c7
:1007a8000000eb0000838800a0ac2000b082880025
:1007b800a0ac2000f08288008605070020052100f3
:1007c8009040780060c16000e1c8b30081407100ca
:1007d800014878003005210090407800e0c06000b2
:1007e8000124a00001487800a0382000f10f200063
:1007f800010160000105210091417800e0c161001c
:1008080002c1710082487800c800de00100521008e
:100818001041780060416100814071000148780012
:10082800a004210090407800e0c0600001487800f2
:10083800b004210090407800e0c0600001487800d2
:10084800c0062100f10f2000010160000103210012
:1008580091417800e0c1610002c1710082487800ce
:10086800c800de00100321001041780060416100db
:100878008140710001487800c0c22000f10f2000bb
:1008880001016000c102210091417800e0c16100ce
:1008980002c1710082487800c800de00d002210041
:1008a8001041780060416100814071000148780082
:1008b800e0c82000f10f200001016000e1022100e2
:1008c80091417800e0c1610002c17100824878005e
:1008d800c800de00f002210010417800604161008c
:1008e8008140710001487800e004210090407800c0
:1008f800e0c060007140b30001487800f0042100b6
:1009080090407800e0c06000f140b30001487800f2
:10091800c00421009040780060c1600061c2b3004b
:100928008140710001487800d0042100904078008f
:10093800e0c060003140b30001487800b0022100f7
:10094800904078000174a100014878000000eb0095
:1009580060838800100020000080fa000000060074
:100968000000fa0006030700c3040700120207008c
:10097800a002210055040700100020000080fa00a2
:10098800000006000000fa0020838000e30f5000fa
:1009980045003200e30f500005003e00e10f500013
:1009a80012003200e10f500018003e000700370027
:1009b800e50f500076003200e50f50005e00390068
:1009c800e60f5000860032009900370068ff0700e4
:1009d800a182800080ff2f0000806000a082880034
:1009e8001000200020838800ac003700dcff0700df
:1009f800a182800080ff2f0000806000a082880014
:100a08002000200020838800a4003700a1828000f5
:100a180080ff2f00008060000000a000a0828800f6
:100a280031a3a800b0022100904078000174a10011
:100a380001487800a082800000a0a100a082880060
:100a4800a0828000ff800a00000000000004e0008f
:100a580085003200a0828000bb800a0000000000f0
:100a68000004e00082003200a0828000cc800a00ee
:100a7800000000000004a2000004e0007e00320034
:100a8800a0828000dd800a00000000000004e00071
:100a98007b0032000000eb0010838800300020004b
:100aa800208388007d003700a182800080ff2f000e
:100ab800008060000010a000a082880011838000e0
:100ac800c282800010c0b300828f500001003e0037
:100ad8000040eb008100e800118388000004e0007a
:100ae800690032000000eb00b08288006005210038
:100af800f10f2000010160000103210091417800fd
:100b0800e0c1610002c1710082487800c800de00bf
:100b1800100321001041780060416100814071009c
:100b2800014878000000eb00108388004000200096
:100b38002083880059003700a182800080ff2f00a1
:100b4800008060000010a000a082880031a3a900e6
:100b5800b0022100904078000174a000014878009c
:100b6800b082800064004000b0828800b1828000ba
:100b780060838000808f5000450039000000eb0042
:100b8800108388005000200020838800430037002d
:100b9800a182800080ff2f00008060000010a0006c
:100ba800a0828800118380000283800010c0b300f7
:100bb800828f500001003e000040eb008100e800f9
:100bc800118388000004e000330032000000eb00cd
:100bd8001083880060002000208388002f003700e1
:100be800a182800080ff2f00008060003000b300e9
:100bf800a0828800c0062100f10f200001016000da
:100c08000103210091417800e0c1610002c1710037
:100c180082487800c800de001003210010417800e7
:100c28006041610081407100014878001b00370075
:100c3800a182800080ff2f00008060000020a000bb
:100c4800a0828800a082800000c0a000a082880046
:100c5800a082800000b0a100a082880020002000af
:100c6800208388000d003700000000000b003700cb
:100c780000000000090037000000000007003700ee
:100c880000000000050037000000000003003700e6
:100c9800000000000100370000000000a082800072
:100ca800ee800a00000000000004e00007003200a7
:100cb800a082800000f0a000a0828800a0828000ae
:100cc80000d0a000a082880003003700a082800026
:100cd80000d0a100a0828800100020000080fa0047
:100ce800000006000000fa00a52fa9002be3a900c8
:100cf80061e3a90097e3a900cde3a90003e4a900f3
:100d080039e4a9006fe4a900a5e4a9000103a9003a
:100d18008000eb0054210a0000030000310020008d
:100d280010210a00000300000223ef000423ef0053
:100d38000623ef000823ef002068200050188800e1
:100d48000c23ef000e03a9000e23a9000e43a900ef
:100d58000e63a9000e83a9000ea3a9000ec3a90063
:100d68000ee3a9001003a9001023a9001043a9004d
:100d78001063a9001083a90010a3a90010c3a9003b
:100d880010e3a9008000eb00fc210a001203000018
:100d980012e3a90021002000b8210a001203000074
:100da80012c3a9001100200054210a0012030000f8
:100db8008000eb0020210a00120300001423ef003a
:100dc8001623ef001823ef001a23ef001c23ef006f
:100dd8001fe3a9001fc3a9001fa3a9001f83a9001f
:100de8008000eb0074210a001e0300008000eb0065
:100df80020210a001e0300002023ef002223ef0019
:100e08002423ef002623ef002823ef001000200002
:100e18000080fa00000006000000fa0023cea900b6
:100e28001fcea90029cea8002be3a9008000eb0063
:100e3800a8210a002a0300002ae3a90011002000c3
:100e480043210a002a0300001100200020210a0083
:100e58002a0300002de3a9002dc3a8002da3a90093
:100e68002d63a9008000eb00a8210a002c030000d4
:100e78002cc3a9008000eb0030210a002c030000dd
:100e880031e3a90031c3a90031a3a8003183a80028
:100e980011002000ba210a00300300008000eb0096
:100ea80098210a00300300008000eb0076210a0038
:100eb800300300008000eb0054210a0030030000da
:100ec8008000eb0032210a00300300008000eb00b4
:100ed80010210a00300300008000eb00ec210a001a
:100ee800320300003303a9001100200054210a0036
:100ef800320300003263a9003243a9003223a9005b
:100f08003203a9002e23ef008000eb00fb210a002a
:100f1800340300003543a9003523a8003503a90090
:100f28008000eb0043210a00340300008000eb003e
:100f380020210a003403000037e3a90037c3a900c1
:100f480037a3a9003783a9003100200098210a009f
:100f58003603000036e3a80036c3a90036a3a9006b
:100f68008000eb0040210a00360300003fe3a9009f
:100f78008000eb00ec210a003e0300003100200055
:100f8800a8210a003e0300003ee3a9008000eb0010
:100f980065210a003e0300003e83a8003e63a800c6
:100fa8004100200020210a003e0300003de3a90083
:100fb80011002000ec210a003c0300003d63a90059
:100fc80041002000a8210a003c0300003ce3a900de
:100fd8003cc3a9003ca3a900b101200040210a009c
:100fe8003c0300003a23ef003823ef004223ef00d0
:100ff8004023ef004623ef004423ef0011002000b8
:10100800a8210a004a0300004a63a8004a43a9002d
:101018004a23a9004a03a90040062000401a880074
:1010280090012000601a880040532000701a880040
:101038005023ef0020682000901a88005423ef0006
:10104800b0042000b01a880080582000c01a880018
:101058005a23ef005c23ef00100020000080fa0004
:10106800000006000000fa0061e3a9008000eb0020
:10107800a8210a006003000060e3a9001100200015
:1010880043210a00600300001100200020210a000b
:101098006003000063e3a90063c3a80063a3a90079
:1010a8006363a9008000eb00a8210a006203000026
:1010b80062c3a9001100200030210a006203000069
:1010c8006623ef008000eb00ec210a0068030000b3
:1010d8006903a9001100200054210a0068030000d8
:1010e8006863a9006843a9006823a9006803a900e8
:1010f8006423ef008000eb00fb210a006a03000074
:101108006b03a8006b23a9006b43a9008000eb00c8
:1011180043210a006a0300008000eb0020210a0036
:101128006a0300006de3a9006dc3a9006da3a900bf
:101138006d83a9003100200098210a006c0300008b
:101148006ca3a9006cc3a9006ce3a9008000eb00a4
:1011580040210a006c0300007423ef007223ef00a3
:101168007023ef006e23ef007823ef007623ef0063
:101178007c23ef007a23ef008023ef007e23ef002b
:101188008223ef0040532000201c88008623ef00b4
:101198008823ef00e0482000501c88008c23ef00d3
:1011a8008e23ef009023ef009223ef001000200021
:1011b8000080fa00000006000200fa000000eb00c0
:1011c800000f78002be3a80061e3a8002e63a800b5
:1011d8006463a800000000007019800070006000bf
:1011e8000000e00004003a00201b8000700060004e
:1011f8000000e0000a0032009e00780010c0b30032
:1012080072382100828f5000010036000040eb0048
:101218008100e800010f78000004e000eeff3a00ca
:101228003263a8006863a80067a3a9006783a900c0
:10123800100020000080fa00000006000000fa00fc
:10124800a40fa90001eba90001aba90031002000ff
:1012580065210a00020b000002eba90005eba900ba
:1012680005cba900058ba800056ba900710020001b
:10127800a8210a00040b00001100200060210a00c8
:10128800040b00008100200090210a00060b0000da
:1012980007cba90007eba9008000eb00fd210a009d
:1012a800080b0000098ba900096ba900094ba900cc
:1012b800092ba900090ba90008eba90008cba90074
:1012c8008000eb0050210a00080b000011002000ec
:1012d800fe210a000a0b00008000eb00d8210a005a
:1012e8000a0b00000aeba9000a0ba9000a2ba900a7
:1012f8000c0ba9000c2ba9008000eb0010210a00a0
:101308000e0b00001100200032210a000e0b000015
:1013180000eca900000ca900002ca900f100200095
:10132800b8210a00020c000002eca900020ca90076
:10133800022ca9008000eb0090210a00d80b0000c5
:101348008000eb0090210a00d40b0000310020003f
:1013580098210a00d60b00008000eb0060210a00eb
:10136800d60b000071002000ca210a00d60b00002d
:101378003100200098210a00da0b00008000eb0001
:1013880060210a00da0b000071002000ca210a005f
:10139800da0b0000100020000080fa0000000600b0
:1013a8000000fa00380ea800d18ba900132ba90061
:1013b800130ba900f18ba800218ba8006100200065
:1013c80040210a008c0b0000c1002000c8210a003f
:1013d800a00b0000a0eba800a0cba900a08ba9003f
:1013e800a06ba800a04ba900a02ba900a00ba800e7
:1013f800398ba80090292000e0598800105320005c
:10140800f05988006beba90031002000ed210a009b
:101418006a0b000031002000ca210a006a0b000094
:101428006b2ba900c100200040210a006a0b0000b4
:10143800100020000080fa00000006000000fa00fa
:1014480038eea800d20ba900142ba900140ba90090
:10145800f20ba800220ba8006100200040210a001e
:10146800900b000001012000c8210a00a40b000015
:10147800a4eba900a4cba900a48ba900a46ba90084
:10148800a44ba900a42ba900a40ba900420ba900f6
:10149800442bef0090e52000305a88006feba9003c
:1014a80031002000ed210a006e0b00001100200021
:1014b800ca210a006e0b00006f2ba9000101200051
:1014c80040210a006e0b0000100020000080fa0086
:1014d800000006000000fa001c2ea800d0cba900ce
:1014e80011aba900118ba900f0cba80020cba80054
:1014f8005100200040210a00860b000061002000f6
:10150800c8210a00a40b0000a4eba900a4cba900e1
:10151800a48ba900a46ba900a44ba900a42ba90023
:10152800a40ba90040cba900442bef00a0e82000a1
:10153800305a88006feba90031002000ed210a0025
:101548006e0b000011002000ca210a006e0b00007b
:101558006f2ba9006100200040210a006e0b0000db
:101568002100200064210a00700800000c28a9004e
:101578002c28a800100020000080fa0000000600b7
:101588000200fa000000eb00000f7800015880000c
:1015980000002800008060000000e0000200320027
:1015a800100020002d00370001eba80000eca80077
:1015b800000000000160800000002800008060003a
:1015c8000000e0000a003a009e00780010c0b30056
:1015d80072382100828f5000010036000040eb0075
:1015e8008100e800010f78000004e000f1ff3a00f4
:1015f8000160800000002800008060000000e0001a
:10160800040032009e00780070382100808f50005e
:10161800020036000000eb00100037000aeba800bb
:10162800000ca9000a0ba900002ca9000a2ba9008c
:101638008000eb00ec210a00720800000ce8a90009
:101648002ce8a90051002000ec210a0074080000d1
:101658000d68a9002d68a800100020000080fa007d
:10166800000006000200fa000000eb00000f7800fe
:10167800217c800000002700008060000000e0005e
:10168800290032000001eb0080072000a10920009a
:1016980053f8200080497800814978008249780011
:1016a800217c8000e00720000080600000017800b5
:1016b8000200a000600420007105200043f820000b
:1016c800804978008149780082497800000000004c
:1016d800eca10a00840f0000a8a00a00840f0000f3
:1016e80080cf50000a0032009e00780010c0b3007e
:1016f80072382100828f5000010036000040eb0054
:101708008100e800010f78000004e000f0ff3a00d3
:101718009e00780070382100808f5000020036004b
:101728000000eb00670037008000eb0050210a0042
:101738008c0f00001100200050210a00860f0000c5
:10174800810c2000b0210a00880f00004100200011
:1017580064210a008a0f00001100200020210a00dd
:101768008a0f00008000eb0098210a008a0f000011
:101778001200200080072000a109200053f8200053
:10178800804978008149780082497800eca10a00f4
:10179800840f0000a8a00a00840f000080cf50002a
:1017a80028003200217c8000e007200000806000d3
:1017b800000178000200a0006004200071052000ec
:1017c80043f82000804978008149780082497800f0
:1017d80000000000eca10a00840f0000a8a00a0085
:1017e800840f000080cf50000a0032009e0078006d
:1017f80010c0b30072382100828f500001003600fb
:101808000040eb008100e800010f78000004e000d0
:10181800f0ff3a00eca10a00840f0000a8a00a001b
:10182800840f000080cf500004003a009e0078002a
:1018380070382100808f5000020036000000eb0055
:101848002000370084efa80000000000217c800001
:1018580000022000008060000000e0000a003a005a
:101868009e00780010c0b30072382100828f5000ab
:10187800010036000040eb008100e800010f78000d
:101888000004e000f1ff3a00217c80000002200003
:10189800008060000000e000040032009e00780034
:1018a80070382100808f5000020036000000eb00e5
:1018b8000400370033a00a00840f00000080fb00fa
:1018c800610010000080fa00000006000200fa0023
:1018d8000000eb00000f78008fefa9003100200016
:1018e80098210a00920f00001100200050210a00e0
:1018f8008e0f0000d1072000b0210a00900f0000d1
:101908002100200064210a00920f0000110020002d
:1019180020210a00920f00008f0fa8008fefa80067
:10192800717c800000002800008060000000e0005a
:1019380002003a000000eb0024003700000000001d
:10194800717c800000002400008060000000e0003e
:101958000a003a009e00780010c0b30072382100d7
:10196800828f5000010036000040eb008100e80043
:10197800010f78000004e000f1ff3a00717c80005c
:1019880000002400008060000000e0000a0032002f
:101998009e00780010c0b30072382100828f50007a
:1019a80001003e000040eb008100e800010f7800d4
:1019b8000004e000020032000000eb0003003700e2
:1019c800eea00a008e0f00000080fb000080fa00e5
:1019d800000006008c1f7800000690000cf0a6009e
:1019e80038003700440e200024028800400490008c
:1019f800600590004608c3004608c1001201c100f6
:101a0800500490007005900010019000920078003a
:101a18003001900092801000400990008208dd009b
:101a28001a039000260598000a03900016059800ee
:101a3800010d78004608c7004608c1004608c100e5
:101a48001201c100500b90000600c8000400cd0030
:101a5800700b90001301c1000400cd00201390000a
:101a680016a0e600020037000c10a10002003700a3
:101a7800060278000c10a000101390001620e60053
:101a8800020037000c00a1000200370006027800af
:101a98000c00a00020049000040c780041a3de0094
:101aa800401490000803430030149000060c78009e
:101ab800600590000a03900016059800040d780050
:101ac8000c0098004f06780000000600801f780080
:101ad800600090000018eb000008eb004f00780051
:101ae800801f7800700090000018eb000018eb00d1
:101af8000008eb004f00780000000600801f780007
:101b0800811f780070009000011878000118780093
:101b180001087800cf0078004f007800801f780017
:101b2800821f780060009000021878000208780090
:101b38004f0178004f007800000006000000fa000e
:101b4800b10fa900b12fa900b14fa90081eca900dc
:101b580089eca90099eca900a9eca900fdeca90061
:101b68008000eb0010210a00fc0c00008000eb0054
:101b780032210a00fc0c00008000eb0054210a000e
:101b8800fc0c000081aca9002100200076210a008d
:101b9800800c00008000eb0054210a00800c00003b
:101ba8008000eb0020210a00800c0000b104200016
:101bb80090210a00840c00005105200090210a00a1
:101bc800860c0000100020000080fa0000000600cb
:101bd8000000fa0089eca9008000eb00ed210a0062
:101be800880c0000894ca800892ca800890ca90041
:101bf80088cca9008000eb0053210a00880c000063
:101c0800884ca9008000eb0010210a00880c000015
:101c1800b104200090210a008a0c00008e2cef00ed
:101c28008c2cef0093eca800936ca900934ca900ae
:101c3800932ca9008000eb00fc210a00900c000006
:101c480011002000b8210a00900c000011002000ab
:101c580074210a00900c00001100200030210a00b5
:101c6800900c000080002000a06488001000200074
:101c78000080fa00000006000000fa0089eca800c5
:101c880081eca800100020000080fa000000060087
:101c98000200fa000000eb00000f780071fe070058
:101ca8000aff0700ba000700d30007000dfc070071
:101cb800a2ff070061fd0700b9fd0700de0007006d
:101cc8000000eb0020838800a082800000e0a000d4
:101cd800a08288000000eb0051052000b146880072
:101ce800a10a2000b1468800006888001f6ea9007c
:101cf800236ea90071012000d8210a008a0d000076
:101d08000080200051052000b1468800a10a20006b
:101d1800b14688000068880001e1a80022cea90029
:101d280022aea900000000000040800062006000b0
:101d38000000e0000a003a009e00780010c0b300de
:101d4800f2522700828f5000010036000040eb005d
:101d58008100e800010f78000004e000f2ff3a007b
:101d68000000eb00000f78000028a9005b8eaa0095
:101d780004fb0700a082800067006000e30f5000aa
:101d880003003a0022cea80022aea90002003700c4
:101d980022cea90022cea800e180800010c0b300a6
:101da80072bb2000828f500001003e000040eb0013
:101db8008100e800e18088000004e00002003200b1
:101dc8005beeaa001c30ef000000000000000000dd
:101dd800d5ff37000200fa000000eb00000f780082
:101de8000000eb00508188002001210090818800cc
:101df80060012100a081880060ff2600b081880072
:101e0800a0ff2600c08188007080800020828800a2
:101e18004081800030828800808080004082880075
:101e2800608080001082880000808000d081880057
:101e380010808000e081880020808000f081880088
:101e480030808000008288000000eb00000f7800de
:101e58000d0037001e0078009e00780001814000c8
:101e680081002100810041009100780000014000bc
:101e78002001210000004100010878001e007800c0
:101e88000000e800000f7800d18180001e00780073
:101e9800808f5000efff3e000000eb00000f78003d
:101ea8000e0037001e0178001e00780080004000f8
:101eb800e006210000804000900078000280e800e1
:101ec80000014000200121000000410001087800c5
:101ed8001e0078000000e800000f7800e181800013
:101ee8001e007800808f5000eeff3e00a002210007
:101ef800f6fe0700100020000080fa00000006002f
:020000040000fa
:101f08001c100000060000008000000022100000e5
:101f180006000000800000006e10000006000000af
:101f280082000000ff7fb00000b180002a1000008e
:101f38002a00000080000000121000000a000000c3
:101f48008000000000100000120000008200000065
:101f580002000300000200000300290046d1ef0040
:101f68000300fe00ffe54b00f66f00000a000000ca
:101f7800800000002810000002000000800000001f
:101f8800541000001a00000080000000000000004b
:020000040000fa
:101f98000000fa0001e1a90001a1a9000181a9003e
:101fa8000161a9000141a9003100200098210a001f
:101fb8000001000000e1a9008000eb0054210a00a4
:101fc800000100000041a9000021a9000421ef0040
:101fd800f0702200400888008000eb0064210a00ad
:101fe800400800000028a9002028a90010002000af
:101ff8000080fa00000006000000fa00002eef0042
:102008001c2eef00382eef00542eef005beea900d7
:1020180057eea9005b8ea900578ea90022cea90011
:102028001ecea90022aea9001eaea90010002000f5
:102038000080fa00000006000000fa000000eb0033
:102048006083880023fd0700100020000080fa004c
:04205800000006007e
:020000040000fa
:020000040005f5
:047e0000ffff000080
:020000040000fa
:020000040005f5
:047e2000ffffff0061
:020000040000fa
:020000040005f5
:047e300078ffff00d8
:020000040000fa
:020000040005f5
:047e38007bffff00cd
:020000040000fa
:020000040005f5
:047e40007f7fff0041
:020000040000fa
:020000040005f5
:047e4800ffffff0039
:020000040000fa
:020000040005f5
:047e5000deffff0052
:020000040000fa
:020000040005f5
:047e58000000ff0027
:020000040000fa
:020000040005f5
:047e60000000ff001f
:020000040000fa
:020000040005f5
:047e68000000ff0017
:020000040000fa
:020000040005f5
:047e70000000ff000f
:020000040000fa
:020000040005f5
:047e7800ffffff0009
:020000040000fa
:020000040005f5
:047e8000fffcff0004
:020000040000fa
:020000040005f5
:047e8800c9ffff002f
:020000040000fa
:020000040005f5
:047ff800ffffff0088
:020000040000fa
:020000040100f9
:04300000ffffff00cf
:00000001FF
